:020000040800F2
:1000000000200020E5020008ED020008F1020008CF
:100010006503000869030008B10300080000000040
:10002000000000000000000000000000F9030008CC
:10003000FD03000800000000010400084D2700082F
:10004000150400081504000815040008150400082C
:10005000150400081504000815040008150400081C
:10006000150400081504000815040008150400080C
:1000700015040008150400081504000815040008FC
:10008000150400081504000815040008000000000D
:10009000000000000000000000000000391100080E
:1000A000150400086511000815040008150400086F
:1000B000CD280008F9290008F5280008F1070008F4
:1000C000F1060008150400081504000815040008CE
:1000D00015040008E10B00081504000815040008C9
:1000E00015040008150400081504000800000000AD
:1000F0000000000000000000000000000000000000
:1001000000000000000000000000000000000000EF
:100110000000000000000000150400084929000844
:1001200000000000000000000000000000000000CF
:1001300000000000000000000000000000000000BF
:1001400000000000000000000000000000000000AF
:10015000000000000000000000000000000000009F
:10016000000000000000000000000000000000008F
:10017000000000000000000000000000000000007F
:10018000000000000000000000000000000000006F
:10019000000000000000000000000000000000005F
:1001A000000000000000000000000000000000004F
:1001B000000000000000000000000000000000003F
:1001C0000000000000000000000000005FF808F1DF
:1001D00000B583B001F022F8304B314A1360314A48
:1001E0001360314B314A03E0116819600433043263
:1001F0002F498B42F8D32A4B1A682E4B9A4204D1CE
:10020000284B1A682C4B9A4200D0FEE7234B2B4A0E
:1002100013602B4A13602B4B02E000221A60043358
:10022000294A9342F9D3254B1B6813B9244B1B6809
:1002300003B1FEE700F0FEFF694601A800F03CFABA
:10024000224C234B1C1BA410002504E01F4B53F829
:10025000253098470135AC42F8DC1E4C1E4B1C1B68
:10026000A410002504E01B4B53F8253098470135B6
:10027000AC42F8DC0099019802F026FC0546174CC8
:10028000174B1C1BA41004E0013C144B53F8243002
:100290009847002CF8DC284600F0EAF9BABADECA22
:1002A000000000200C0200200000002058900008F0
:1002B0001002002078563412325476981002002032
:1002C000D00D002010020020D40D002040040008B2
:1002D00040040008400400084004000840040008EE
:1002E0004004000808B5FFF773FF00BF00BEFEE73B
:1002F0001EF0040F0CBFEFF30880EFF30980714686
:10030000414A10472DE9F04182B004468846134B1C
:100310005E6B9F6B9D6A1B6B13F0020F0DD00F4B32
:10032000DB6A002B09DA4BF6AB6100F0FFFF20B16E
:100330004FF00042094BDA620CE0094800F020FF60
:10034000CDF800803B4632462946204600F076FF35
:1003500000BEFEE702B0BDE8F08100BF00ED00E0A6
:100360002484000800BEFEE71EF0040F0CBFEFF36C
:100370000880EFF309807146244A10472DE9F041C7
:1003800082B004468846084B5E6B9F6B9D6A0748A7
:1003900000F0F6FECDF800803B4632462946204666
:1003A00000F04CFF00BEFEE700ED00E034840008E2
:1003B0001EF0040F0CBFEFF30880EFF309807146C5
:1003C000134A10472DE9F04182B004468846084B95
:1003D0005E6B9F6B9D6A074800F0D2FECDF80080EF
:1003E0003B4632462946204600F028FF00BEFEE785
:1003F00000ED00E04084000800BEFEE700BEFEE71E
:1004000000BEFEE770470000050300087D030008FA
:08041000C503000800BEFEE771
:1004180058900008000000201002002058900008A2
:10042800000000000000000010020020D40D002091
:080438000000000000000000BC
:10044000F0B4CB7803F00F02154613F0100F01D073
:100450008D7815430B78E3B10668002316E001227E
:100460009A400C8832EA04040FD19C000F27A74061
:1004700026EA070605FA04F42643CC78282C01D195
:10048000426102E0482C00D102610133072BE6D91A
:1004900006600B88FF2B1ED94668002318E003F185
:1004A00008040122A2400C8832EA04040FD19C0007
:1004B0000F27A74026EA070605FA04F42643CC785E
:1004C000282C00D14261CC78482C00D10261013344
:1004D000072BE4D94660F0BC704700BF836819421F
:1004E00001D0012070470020704700BF01617047B4
:1004F0004161704710B4274B5B6803F00C03042B79
:1005000005D0082B06D0FBB9234B03601EE0224B1D
:1005100003601BE01F4A53685268C3F383430233EE
:1005200012F4803F04D11D4A02FB03F303600DE087
:10053000184AD26A02F00F02511C174AB2FBF1F2BC
:1005400002FB03F3036001E0134B036011494B68A6
:10055000C3F30313124CE35CDAB20368D340436085
:100560004A68C2F30222A25CD2B223FA02F282608B
:100570004A68C2F3C222A25CD2B2D340C3604A68C6
:10058000C2F3813207498A5CD2B2B3FBF2F3036152
:1005900010BC70470010024000127A0000093D00B4
:1005A000080000200400002030B587B004460D4646
:1005B000038A9BB2CA8823F440531343038283897E
:1005C0009BB28A88098968890A43024323F4B0539D
:1005D00023F00C031343A381A38A9BB2AA8923F4BB
:1005E00040731343A38201A8FFF784FF1E4B9C4274
:1005F00001D1049A00E0039AA38913F4004F08D0B4
:1006000002EB820202EB820229684900B2FBF1F19F
:1006100007E002EB820202EB820229688900B2FB4A
:10062000F1F1124BA3FB01235B091B011A096420A2
:1006300000FB1212A18911F4004F08D0D20032320F
:100640000A49A1FB0212C2F342121A4307E0120147
:1006500032320649A1FB0212C2F343121A4392B28C
:10066000228107B030BD00BF003801401F85EB512B
:10067000FEE700BF08B50D4B1B6813B90C4A0B4BC6
:100680001A600A4B1A68C31C23F003031344094978
:100690008B4206D905F042FD0C2303604FF0FF307A
:1006A00008BD02490B60104608BD00BF14020020BF
:1006B000D40D0020001C002001230360014B0B60BF
:1006C000704700BF1800002010B4072902D9043079
:1006D0000839C9B2046889000F238B4024EA030358
:1006E0000360036802FA01F11943016010BC70470E
:1006F0002F4B9B8A03F480639BB2002B2FD02D4B92
:100700001B68002B2BD12A4A938A9BB223F4806367
:100710009BB2938213889BB243F400731380244BE3
:100720001B8803F400739BB2002BF8D1224B1A688C
:1007300001321A601B68022B0BDD00231F4A136075
:100740001F4A13601F4A13601A4A13601E4A13603F
:1007500005E0174A13889BB243F480731380144B4F
:100760009B8A03F480639BB203B3124B1B68EBB10B
:100770000F4A938A9BB223F480639BB293820E4B01
:100780001A6801321A601B68022B0BDD00230B4A2A
:1007900013600B4A13600B4A1360064A13600A4A3F
:1007A00013607047034A1368013B1360704700BF32
:1007B00000540040340300203C030020A802002025
:1007C00038030020A4020020B00200200023044AC5
:1007D0001382044A1360044A1360044A136070478A
:1007E0000054004034030020A4020020B002002086
:1007F00008B54FF00042774BC3F88021764B9B8AB7
:1008000013F0010F12D0754B1B68012B03D0744BF2
:100810001B68012B0AD1734B1B689BB26E4A138273
:10082000938A9BB223F001039BB293826A4B9B8A0B
:1008300003F002039BB2002B31D0684B1B68012BE5
:1008400003D0674B1B68012B29D1634A938A9BB263
:1008500023F002039BB29382138B9BB223F0040319
:100860009BB21383604B1B68012B0ED15C4B1B6842
:10087000012B0AD113889BB223F480639BB21380AF
:1008800013889BB243F400731380554B1B68012BF4
:1008900005D1514A13889BB243F4806313804E4BB9
:1008A0009B8A03F080039BB263B14C4B1B68012B06
:1008B00008D14E4B1B689BB2474A13824C4A1368BF
:1008C000013313604A4B1A684A4B1B689A4215D190
:1008D000424B1B68012B11D10022404B1A603E4A4B
:1008E00013889BB243F4007313803B4B1B8803F4C3
:1008F00000739BB2002BF8D1FFF768FF364B9B8A41
:1009000003F004039BB223B3344B1B68012B20D1AB
:10091000314B9B8A03F080039BB2D3B12F4B1B68F2
:10092000012B16D1324B1A68324B1B689A4210DAEF
:100930002F4B19682D4A52F8211089B2264A11828C
:10094000196801311960938A9BB223F004039BB2AA
:100950009382214B9B8A03F040039BB2002B37D03C
:100960001F4B1B68012B33D1214B18681A4A128A7E
:10097000D2B2214941F820201A6801321A601A4A7D
:1009800012681B68D31A012B06D1134A13889BB235
:1009900023F480639BB21380134B1A68144B1B68BB
:1009A0009A4215D10C4A13889BB243F4007313800A
:1009B000094B1B8803F400739BB2002BF8D1084A43
:1009C00013600B4A11680C4A42F82130FFF7FEFE13
:1009D00008BD00BF00E100E00054004038030020E3
:1009E000A8020020AC020020B00200202402002057
:1009F00034030020A4020020B402002030B585B0EA
:100A00002B4C09220B212046FFF75EFE09220C2108
:100A10002046FFF759FE092208212046FFF754FE21
:100A200008220A212046FFF74FFE092211462046E0
:100A3000FFF74AFE04F58064092206212046FFF7ED
:100A400043FE082207212046FFF73EFE194A93691C
:100A500043F4804393614FF4165300930025ADF89F
:100A60000450ADF80650ADF80850ADF80C50042312
:100A7000ADF80A3004F5305469462046FFF794FD7E
:100A80000D4B20225A60902283F82523A3899BB224
:100A900043F40053A381094B1D600122084B1A60E7
:100AA00023889BB223F040039BB2238005B030BD66
:100AB000000801400010024000E100E0C8030020EF
:100AC00020000020134B1B68012B22D0124B186012
:100AD000124B9A8992B242F008029A811A8892B215
:100AE00022F0400292B21A800D4A12789A800121B7
:100AF000084A116000220B490A600B490A609A8972
:100B000092B242F080029A819A8992B242F04002F7
:100B10009A817047C8030020540400200038014027
:100B2000D0030020200000205C040020F8B5204CF9
:100B30002468012C3BD11E4617460C4605461D482D
:100B400000F01EFB802200211B4805F0F8FA1B4B29
:100B50001D60E1B21A4B1970FAB21A4B1A704FF0BD
:100B6000FF30194B1860194883899BB243F0040386
:100B7000838101B91AB10022154B1A6002E00122EB
:100B8000134B1A6000230A4A1360124A16700E4A69
:100B90001360114B9DF918201A70104B9DF91C2001
:100BA0001A700A4A93899BB243F020039381F8BDDF
:100BB00020000020C88200084403002058040020C0
:100BC000CC030020C60300205C0400200038014054
:100BD00040030020C5030020C4030020500400206F
:100BE000644B1B8803F080039BB2002B3BD0624B0D
:100BF0001B68012B37D1614B1A68012A04D0604B66
:100C00001B6801339A4228D15A4B1B8803F04003DA
:100C10009BB2002BF8D0574B9A8992B222F008026F
:100C200092B29A810021544A11600120554A106005
:100C30009A8992B222F0800292B29A819A8992B2F3
:100C400022F0400292B29A814D4A11601A8892B203
:100C500022F0400292B21A8005E0494A13604A4AE3
:100C6000D25C444B9A80434B1B8803F020039BB219
:100C7000002B7BD0434B1B68002B77D13D4B9B88CF
:100C80009BB2DAB2414909788A4208D140490968E1
:100C900029B901233E490B603E490B701AE03C49DB
:100CA0000968B9B93C490B703C4B93F90030012BF2
:100CB00010D130498B899BB243F008038B810B889C
:100CC0009BB223F040039BB20B80334B93F900306F
:100CD0009BB28B802E4B1B68012B44D1284B1B6889
:100CE0002F49CA542D4B93F90030012B0FD1214AC3
:100CF00093899BB243F00803938113889BB223F03E
:100D000040039BB213801E4B1B68CB5C93801C4B33
:100D10001B685A1C234909688A4209D02049C95CCA
:100D2000214B1B7899421AD11A4B93F90030B3B971
:100D300010498B899BB223F004039BB28B818B8972
:100D40009BB223F020039BB28B81002310490B60E0
:100D500013498B540A4A136001220A4B1A60084A4D
:100D600013680133136000220A4B1A70014B1B8871
:100D7000704700BF00380140C80300205404002021
:100D80005C04002020000020D0030020CC030020C1
:100D900040030020AD0A0020AC0A0020C50300205B
:100DA0004403002058040020C60300200000000077
:100DB0002DE9F041504CB4F91C0004F06FFF04F031
:100DC00037FB4BA3D3E9002304F086FB00224B4BF7
:100DD00004F0ACFC04F058FE02F00EF8484904F0B0
:100DE000B1FF05F075F905B2B4F91C0004F056FF27
:100DF00004F01EFB3EA3D3E9002304F06DFB0022A8
:100E00003E4B04F093FC04F03FFE02F031F83C4905
:100E100004F098FF05F05CF994F82830A26904EB1F
:100E20000313DA621D86588600262686668600230E
:100E3000E3623746012411E02F4D4146E86A04F091
:100E400079FEE86205EB0415B5F93000064436B2C8
:100E5000B5F932303B441FB2013464B2132C0ADCC2
:100E6000254B03EB0413D3F82C802649404605F0AC
:100E7000FDF80028E0D0013C1F4D204604F00EFF95
:100E80000146E86A05F012F8E86296FBF4F097FB79
:100E9000F4F424B200B204F001FF0546204604F049
:100EA000FDFE294602F022F8174904F04BFF04F03A
:100EB000BFFA0FA3D3E9002304F038FC04F0BCFD13
:100EC00000B2002802DA00F5B47000B20A4B1886AE
:100ED00093F82820511C83F82810142A02D10122EB
:100EE00083F828200020BDE8F08100BFAFF3008028
:100EF000F1D4C853FB210940B00A002000806640AD
:100F00000000C842000080BF000034430000000021
:100F1000F0B583B04A4ED6E902454FF0FF3240F2B9
:100F2000FF3314401D4005F00F03DB4303F00F03B4
:100F30005F1007F0020747EAD3075A0002F00402E5
:100F40001743DB0003F008031F43384604F05EFA42
:100F500000223C4B04F0C0FA04F06EFDB0836FEA4F
:100F60001453C3F30B03581200F0020040EAD320DD
:100F7000DA1102F0040210435A1102F00802104381
:100F8000DA1002F0100210435A1002F0200210434F
:100F90005A0002F040021043DA0002F080021043CF
:100FA0005A0102F480721043DA0102F40072104315
:100FB0005A0202F480621043DB0203F40063184318
:100FC00000F00F05C0F303131D4405EB10253D444D
:100FD00005F00F05756204F061FE04F029FA16A30E
:100FE000D3E9002304F078FA04F04EFDB061C4F3B5
:100FF0000344E44304F00F04631003F0020343EAE4
:10100000D402630003F004031343E40004F0080473
:101010001C433462A54201D1FFF7CAFE084BB3F965
:101020001C40986904F004FA009402460B460648F6
:1010300000F0A6F803B0F0BD9A9999999999B93F33
:10104000B00A002000803640E482000838B5364BF4
:1010500093F9003001335BB2344A134003D5013BAE
:1010600063F0010301335BB22F4A1370012B5AD195
:10107000114602F10803D3E90023941843EB03055A
:10108000C1E902452A4B9A68C2F34022D2B200233A
:1010900022432B43C1E90223088A0130088202F06F
:1010A0001F020023002B08BF1B2A0BD191F912103D
:1010B00041B91D4901208874052088820020887567
:1010C000C1E90223184B93F91230012B2BD1164B97
:1010D0009B8A292B24D1144B93F86C31022B06D90F
:1010E000FFF716FF0022104B83F86C2103E0013359
:1010F0000D4A82F86C310C4B00229A7400200021BA
:10110000C3E90201012199759A821A821A7009496C
:101110000B889BB223F001039BB20B808A8438BDFD
:101120000133014A938238BDB00A002001000080DB
:10113000000C0140002C0140084A536943F400733D
:101140005361074B1B8813F0010F06D102F52052A3
:1011500013889BB243F001031380704700040140E1
:10116000002C014008B5054A138A9BB223F0010305
:101170009BB21382FFF76AFF08BD00BF002C01403D
:101180000FB400B583B004AB53F8042B0193802156
:10119000064805F0E9FC002803DD0146034800F09D
:1011A00039F803B05DF804EB04B070476004002028
:1011B0002DE9F04385B004460F46435613BB042582
:1011C00028462146ABBE04461FE03546102E28BFF8
:1011D0001025002306E014F9011B04AA1A4402F8A2
:1011E000101C0133AB42F6D304AA1344002203F8C7
:1011F000102CE9464FF0040840464946ABBE8046F5
:10120000761B00E00E46002EDFD1384605B0BDE863
:10121000F08300BF08B5FFF7CBFF08BD08B500F0AD
:10122000E9F8024B024A9A6008BD00BF00ED00E0F9
:101230000000000808B500F007F908BDF8B504463D
:101240000D4617461E462648FFF79AFF2168254897
:10125000FFF796FF61682448FFF792FFA1682348D3
:10126000FFF78EFFE1682248FFF78AFF21692148D6
:10127000FFF786FF61692048FFF782FFA1691F48D9
:10128000FFF77EFFE1691E48FFF77AFF1D48FFF771
:1012900077FF29461C48FFF773FF1C4CE16A1C4886
:1012A000FFF76EFF216B1B48FFF76AFFE16B1A48DF
:1012B000FFF766FF15F0800F03D039461748FFF798
:1012C0005FFF15F4004F03D031461548FFF758FF74
:1012D0001448FFF755FF06991348FFF751FFF8BD73
:1012E0000883000818830008288300083883000852
:1012F0004883000858830008688300087883000842
:101300008883000898830008A483000800ED00E0AB
:10131000B4830008C4830008D4830008E483000871
:10132000F4830008048400080C84000883691A8888
:101330008A4207D10268033A012A05D80233836141
:1013400001207047002070470020704782B00023C2
:1013500001930093244A136843F480331360224BB3
:101360001B6803F400330093019B01330193009B3E
:101370001BB9019BB3F5A06FF1D11B4B1B6813F494
:10138000003F02D00123009301E000230093009B63
:10139000012B26D1144B5A685A605A685A605A6811
:1013A0005A605A6822F47C125A605A6842F49812C1
:1013B0005A601A6842F080721A600B4B1B6813F077
:1013C000007FFAD0084B5A6822F003025A605A682C
:1013D00042F002025A60044B5B6803F00C03082BD6
:1013E000F9D102B0704700BF0010024008B5FFF706
:1013F000ADFF08BD08B5114B1A6842F001021A6032
:1014000059680F4A0A405A601A6822F0847222F41E
:1014100080321A601A6822F480221A605A6822F414
:10142000FE025A604FF41F029A600022DA62FFF750
:10143000DDFF4FF00062034B9A6008BD00100240D0
:101440000000FFF800ED00E01D4B5B6803F00C03AB
:10145000042B06D0082B08D01BBB1A4A1A4B1A6063
:1014600022E0184A184B1A601EE0154A5368526869
:10147000C3F38343023312F4803F05D1134A02FBC6
:1014800003F3114A13600FE00D4AD26A02F00F0213
:10149000511C0C4AB2FBF1F202FB03F30A4A13603F
:1014A00002E0084A084B1A60054B5B68C3F303135C
:1014B000074AD35CDAB204490B68D3400B6070472B
:1014C0000010024000127A003400002000093D00A4
:1014D000240000204FF0804213889BB243F00103A8
:1014E000138070474FF0804213889BB223F00103B2
:1014F0009BB21380704700BF02684068824214BFED
:1015000000200120704700BF026883689A4203D11F
:101510004268C3689A4206D042680368013B9A4217
:1015200003D101207047012070470020704700BFA1
:10153000436819704268C3689A4202D18368436065
:101540007047436801334360704700BF0268C36857
:101550009A4203D1826802601878704703685A1C67
:1015600002601878704700BF43680360704700BF8F
:10157000816041600160013A1144C160704700BF61
:10158000C3B27F2B02D9C3F1FF039BB2044AD35CE1
:10159000FF2802D9D843C0B270471846704700BF31
:1015A0005084000870B50446164603785B00DBB231
:1015B000194301707E291BD11046FFF7A5FF60B9C2
:1015C00063791BB923790BB1002323717E21304647
:1015D000FFF7AEFF0125E57004E00025E570304619
:1015E000FFF7C2FF0023A37063700123637157E00C
:1015F00001F07F037F2B04D10023C37043710125C9
:101600004EE0C378002B48D001F03F033E2B46D07C
:1016100011F0010F03D0837863F07F038370637848
:101620000133DBB26370072B32D9A278A2F17E03BB
:10163000DBB2012B01D91B2A0FD13046FFF764FF23
:1016400028B91B213046FFF773FF012506E000256E
:10165000E5703046FFF788FF00E001253046FFF7D0
:1016600053FF20B9A1783046FFF762FF04E0002560
:10167000E5703046FFF778FF0023A370637063794D
:101680001BB123790BB9012323710023637107E098
:10169000A3785B08A370012502E0012500E0012585
:1016A000284670BDF0B4214B1E78214B23F816005C
:1016B0000136204B1E4003D5013E66F00706013679
:1016C000F6B21A4B1E7000210D4608460C460B461A
:1016D0001BE0F21802F00702154F37F91220164FDF
:1016E00037F9137007FB0244144F37F9137007FBE7
:1016F0000200134F37F9137007FB0255114F37F9EA
:10170000137007FB02110133DBB2072BE1D92A1357
:101710000B1303FB03F302FB0233221302FB12320F
:10172000001300FB1020F0BC704700BF0005002034
:101730002405002007000080E0040020F0040020C1
:10174000040500201405002010B50446037B5B004F
:1017500003730846FFF7A6FF237B0028D4BF184673
:1017600043F00100207380EA500313F0010F08D00A
:1017700094F90D301F2B02DC0133637301E0013B50
:101780006373637B08335BB263733F2B2ADD164AB6
:10179000134003D5013B63F03F0301336373A37B25
:1017A0005B00DBB2A37300F00700421FD2B2022A33
:1017B00001D9032802D143F00103A373A17B81EA7D
:1017C000510181F0010104F1100201F0010104F561
:1017D0004E70FFF7E7FE28B9D4F8343343F0010325
:1017E000C4F8343310BD00BF3F00008010B504467C
:1017F00090F8303313F0FF0F10D10A4A13880133E9
:10180000138040234381002303818371012380F8E7
:1018100030334B23A0F8403300F068FC0823A4F8D1
:10182000423310BD2807002070B504468378002B92
:101830006ED10579002D46D100F590763046FFF740
:101840005BFE40B1B4F842332BB900F067FC0023D3
:1018500084F8303368E0637903B9A37101236371BD
:10186000B4F8403383B93046FFF746FE38B1B4F8D8
:101870004233013BA4F842337E23E37009E0304653
:10188000FFF764FEE07004E0013BA4F840337E23E0
:10189000E370E3781B2B0ED13046FFF72DFE28B105
:1018A00000F03CFC002384F830333DE03046FFF785
:1018B0004DFEE07005E07E3BDBB2012B01D800233A
:1018C000637101232371637963B1A379042B09D96F
:1018D0000023A3716389402B01D1752300E04023CD
:1018E000638113E0E27823791A4203D0A3790133AC
:1018F000A37108E00023A3716389402B01D17523F4
:1019000000E04023638123795B0023710823A370E7
:10191000608923891844C0F308002081A378013B23
:10192000A370FFF72DFE0546284670BD000000009D
:101930002DE9F84305464FF45172002104F0FFFBF6
:101940004FF4807205F1200105F11000FFF710FE41
:101950004FF4007205F5987105F59070FFF708FED9
:1019600000245BE0204603F051FD2FA3D3E90023C0
:1019700003F0B2FD00224FF07F5303F0ADFD0646A9
:101980000F4600222E4B03F0A7FD00222C4B03F044
:10199000CDFE8046894601F09FF925A3D3E90023B7
:1019A00003F09AFD04F048F8264B23F81400404653
:1019B000494601F0D9F91EA3D3E9002303F08CFDB9
:1019C00004F03AF8204B23F814001BA3D3E90023BA
:1019D0003046394603F080FD0022194B03F0A6FE85
:1019E00006460F4601F078F911A3D3E9002303F06E
:1019F00073FD04F021F8154B23F8140030463946E6
:101A000001F0B2F90AA3D3E9002303F065FD04F065
:101A100013F80F4B23F814000134E4B2072CA1D9BA
:101A200040236B81BDE8F8836F1283C0CA2119403F
:101A30000000000000FEAF40000000000030A140A8
:101A400000C09240E0040020F004002004050020C3
:101A500014050020164A936943F400739361154BF3
:101A60009A6842F001029A609A6842F008029A600D
:101A7000104B9B6813F0080FFAD10E4A936843F09D
:101A8000040393600B4B9B6813F0040FFAD1094BCE
:101A90000022DA620B225A630122DA609A6842F06D
:101AA00002029A609A6842F001029A60DB6C704709
:101AB00000100240002401400E4AD36943F0005355
:101AC000D3610D4B1A6822F0C0021A601A6842F006
:101AD00038021A601A6842F004021A601A6842F06A
:101AE00001021A600A221A615A6842F001025A6021
:101AF000704700BF00100240007400400268406858
:101B0000824214BF00200120704700BF0268836832
:101B10009A4203D14268C3689A4206D04268036879
:101B2000013B9A4203D101207047012070470020F9
:101B3000704700BF436819704268C3689A4202D177
:101B4000836843607047436801334360704700BF58
:101B50000268C3689A4203D18268026018787047AD
:101B600003685A1C02601878704700BF10B504461D
:101B7000FFF7C4FF20B92046FFF7EAFF00B210BD0F
:101B80004FF0FF3010BD00BF38B505460C46084683
:101B9000FFF7BCFF18B929462046FFF7CBFF38BD39
:101BA0004840C0B2024B33F8100080EA1120704761
:101BB00018850008F8B50446002304E0E15C524AA9
:101BC000995401339BB2B0F850219342F6D34E4959
:101BD00000225A54A1F84A31014613460EE04C1C2B
:101BE0000A7852081946202A01D052B200E0002299
:101BF000464D2944CA7101339BB22146052BEED9CB
:101C00004A1C0B78C3F3430340494B7300210DE09A
:101C1000541C13785B080A46202B01D05BB200E00D
:101C200000233A4DAB54013189B222460529EFD940
:101C300013783649C3F343038B71002381F8463090
:101C400039E05E1C1B785B081446202B01D05BB288
:101C500000E00023C5EBC5012C4F394421448B73B0
:101C6000013292B2334600E00022052AE9D9197800
:101C7000C5EBC502254C2244C1F34301117593F90C
:101C80000020002A08DA0122AA40214694F84740A1
:101C9000224381F8472009E0012202FA05F11B4C9A
:101CA00094F8472022EA010284F847200135174AB8
:101CB00082F846501A46531C117811F0010F04D1D6
:101CC000124991F84650072DCED953780F49A1F803
:101CD0004830032B16D1D11C93780C4A82F84A3035
:101CE000F02B0FD1B0F850310C1A1B1B023BA2F89D
:101CF0005030D164D0F8583123B10121044A117019
:101D000002489847F8BD00BF720C0020200C00204C
:101D1000C00D002038B5044671E094F85E3133BB45
:101D20007E2D24D1B4F85031112B11D9B4F85221A1
:101D30004FF2B8039A420BD194F85C312BB1D4F82E
:101D400058312BB10020984702E02046FFF732FFC0
:101D5000012384F85D314FF6FF73A4F8523100235C
:101D6000A4F8503184F85F3184F8603147E033B92A
:101D70007F2D04D184F85D3184F860313FE02BB9C8
:101D80001B2D03D1012384F85E3138E094F85D31D6
:101D900093B3B4F85031B3F5A57F28D25A1CA4F8F8
:101DA0005021E8B2E054B4F85211FFF7F9FEA4F85C
:101DB0005201A379602B05D12378822B02D1012314
:101DC00084F8603194F85F31012B07D1F02D05D1F3
:101DD000013384F85F31012384F8603194F85F3176
:101DE00053B9032D08D1013384F85F3104E0002397
:101DF00084F85D3184F86031002384F85E31D4F8D2
:101E00004C011030FFF7B2FE0546B0F1FF3F84D120
:101E100038BD00BF38B505460C46A1F17E03DBB2E4
:101E2000012B01D91B2906D1D5F84C1101F5907170
:101E30001B20FFF7A9FEB5F854112046FFF7B0FEAE
:101E4000A5F85401D5F84C1101F590712046FFF723
:101E50009BFE38BD2DE9F04106460F4690460846E8
:101E600004F04EFE062804D8384604F049FE85B238
:101E700000E00625002408E0395D490001F0FE017C
:101E80003046FFF7C7FF0134A4B2AC42F4D3052DAE
:101E900007D90BE040213046FFF7BCFF0134A4B264
:101EA00000E00024C5F106039C42F3D3B979490050
:101EB00041F0600141EA0801C9B23046FFF7AAFFCC
:101EC000BDE8F0812DE9F8430746894690461E4655
:101ED000BDF820504FF6FF73A0F85431D0F84C11E4
:101EE00001F590717E20FFF74FFE00240DE0C4EB5A
:101EF000C40108F1FF32944214BF00220122494478
:101F00003846FFF7A7FF0134A4B24445EFD30321BD
:101F10003846FFF77FFFF0213846FFF77BFF07E0E9
:101F200006F1010831783846FFF774FF254646462A
:101F30006B1E9CB2002DF3D1B7F85431D9436FEA30
:101F40001323DCB2C9B23846FFF764FF2146384696
:101F5000FFF760FFD7F84C1101F590717E20FFF775
:101F600013FEBDE8F88300BF2DE9F04180460E4620
:101F700015464FF6FF73A0F85431D0F84C1101F517
:101F800090717E20FFF700FE06E0771C3178404616
:101F9000FFF740FF25463E466B1E9CB2002DF4D154
:101FA000B8F85431D9436FEA1323DCB2C9B24046C2
:101FB000FFF730FF21464046FFF72CFFD8F84C11C1
:101FC00001F590717E20FFF7DFFDBDE8F08100BFD5
:101FD000F8B504460F4616461D464FF4B27200216E
:101FE00004F0ADF8C4F84C7184F85C61C4F8585141
:101FF0004FF6FF73A4F85431A4F85231F8BD00BF76
:1020000010B588B01A4C1B4B069323230593452328
:10201000049313A3D3E90023CDE9022331230193D1
:102020004E23009310A3D3E900231349204604F064
:1020300031FDC0B2114B187000232354104B1A7895
:10204000009023460F491048FFF73CFF01220F4B39
:102050001A700F48FFF7CAFB08B010BDAFF300803D
:102060000000000000BE9D40000000E0D154B340DD
:10207000A8060020EC840008D08400084C0700204B
:10208000500700203007002044050020980A002057
:102090005407002070B582B00823ADF80430032641
:1020A0008DF8066010258DF807500E4C01A92046CA
:1020B000FEF7C6F9236943F4002323610223ADF838
:1020C00004308DF8066000238DF8073001A9204602
:1020D000FEF7B6F9ADF8045001A90348FEF7B0F9D0
:1020E00002B070BD001001400008014008B5FFF7C4
:1020F000F9F90848036943F008030361064A1388A5
:102100009BB243F0010313804FF40071FEF7EEF928
:1021100008BD00BF001001400008004008B5FFF7EF
:10212000D9F90848036943F400230361064A138878
:102130009BB223F001039BB213804FF40071FEF7B2
:10214000D7F908BD0010014000080040F0B5D1B03B
:1021500005460022312143A803F0F1FF854B93F897
:10216000303313F0FF0F40F0FE80834B93F90040B3
:10217000002C40F0F88095F84630002B00F0F680F7
:10218000012B2FD105F10E017C4804F0A7FC48BBC0
:102190002B7D012B26D1E91D43A804F0A9FC6B7B04
:1021A0008DF8123129460DF2131004F0A1FCAB7921
:1021B0008DF81931724E734A31460DF58D7004F069
:1021C00069FC4B238DF820316C4A31460DF2211009
:1021D00004F060FC40238DF8273101226A4B1A700D
:1021E00004268EE095F84630012B42D905F10E0108
:1021F000624804F073FC00283BD105F1150739460D
:10220000624804F06BFCA0BB2B7D012B31D1EB7E2F
:10221000012B2ED1E91D43A804F06AFC6B7B8DF8DD
:10222000123129460DF2131004F062FCAB798DF8DF
:102230001931534E534A31460DF58D7004F02AFC86
:102240004B238DF820314D4A31460DF2211004F018
:1022500021FC40238DF827313A4631464AA804F044
:1022600019FCEB7E8DF82E310122474B1A700526A2
:1022700047E095F84630012B40D905F10E013F4863
:1022800004F02CFC002839D105F115013F4804F079
:1022900025FC98BB2B7D012B30D1EB7E022B2DD161
:1022A000E91D43A804F024FC6B7B8DF8123129460C
:1022B0000DF2131004F01CFCAB798DF81931304E7F
:1022C000304A31460DF58D7004F0E4FB4B238DF858
:1022D00020312A4A31460DF2211004F0DBFB402365
:1022E0008DF82731294A31464AA804F0D3FB01234F
:1022F0008DF82E31244A1370052602E00022224B6D
:102300001A70214B93F90070012F2FD1204A1388A6
:1023100001331380B5F850104C1CE4B2EB6C184A32
:10232000013103A804F084FB142000F019FA194BC2
:102330001B68002BFBD100F03DFA174B93F860317E
:10234000002BFAD1013CA4B2009403ABB2B243A972
:102350001148FFF7B7FD0122074B1A700548FFF738
:1023600045FA3C4602E00024034B1C70204651B065
:10237000F0BD00BF54070020980A0020188700080D
:102380002887000820870008340500202C870008D3
:102390004E0700201C0200204405002030B583B009
:1023A00005466B4C2268531C23606A4B1B886A49A4
:1023B000098801916949098800916949694804F0CF
:1023C00069FBC0B2684B18702368B3F57A7F01DBF4
:1023D00000222260634B00221A54644A1278009053
:1023E00063496448FFF76EFD0122634B1A70614B2D
:1023F00093F86031002BFAD1142000F0B1F95F4B53
:102400001B68002BFBD100F0D5F95D48FFF7EEF912
:102410000023504A1380514A13804F4A13809D4233
:1024200040F39380564B93F8303313F0FF0FF9D1FC
:102430000022544B1A6003E0524A136801331360C0
:10244000504B1B68B3F5FB1FF6DB464C0B234E4A83
:102450004E49204604F01EFBC0B2434B18700023C7
:102460002354424B1A780090234641494148FFF7D4
:1024700029FD0122404B1A704148FFF7B7F9404B44
:1024800093F8303313F0FF0FF9D100223D4B1A605F
:1024900003E03C4A1368013313603A4B1B68B3F501
:1024A000FB1FF6DB2F4C0B23374A3949204604F03B
:1024B000F1FAC0B22C4B1870002323542B4B1A781E
:1024C000009023462A492B48FFF7FCFC01222A4BA7
:1024D0001A702B48FFF78AF9294B93F8303313F021
:1024E000FF0FF9D10022274B1A6003E0254A136839
:1024F00001331360234B1B68B3F5FB1FF6DB194C4C
:102500000B23214A2349204604F0C4FAC0B2164BDB
:10251000187000252554154B1A780090234614494D
:102520001448FFF7CFFC0122134B1A701448FFF731
:102530005DF9144B1D6003E0124A13680133136008
:10254000104B1B68B3F5D81FF6DB03B030BD00BFDE
:10255000480700209A0A00204E0700202807002084
:1025600034870008A80600204C07002050070020F0
:102570003007002044050020980A00201C0200209B
:102580005407002038050020208700085C870008D9
:1025900094870008C0870008F0B41F4603B90746B7
:1025A000C0233B7000237B70022419E0CD5CC02D5A
:1025B00003D0DB2D01D03D550EE0C02D05D13D19D6
:1025C000013424B2DC262E7006E0DB2D04D13D1947
:1025D000013424B2DD262E70013424B201331BB243
:1025E0009342E3DB631C1BB2C0223A55A0F8503182
:1025F0001846F0BC704700BF0378C02B4AD143781F
:10260000002B49D170B59AB0002502231AE0DB2CCB
:1026100012D10136845DDC2C05D1C0261AAC2C44C5
:1026200004F8646C06E0DD2C04D1DB261AAC2C44E3
:1026300004F8646C013303E01AAE2E4406F8644CCF
:1026400001330135632B03DC1E46C45CC02CDED194
:10265000134803880133038091F86031002BFBD1CC
:1026600092F8303313F0FF0FFAD114460E461420BF
:1026700000F076F80B4B1B68002BFBD100F09AF8AA
:10268000AAB201A93046FFF76FFC2046FFF7AEF86B
:10269000002003E001207047012070471AB070BD90
:1026A000280700201C02002030B583B04FF40073CF
:1026B000ADF8043003258DF8065010238DF807304F
:1026C000104C01A92046FDF7BBFE4FF48073ADF816
:1026D000043001A92046FDF7B3FE4FF440712046B7
:1026E000FDF704FF0123ADF804308DF806500423F4
:1026F0008DF807300DEB03010348FDF7A1FE03B091
:1027000030BD00BF001001400008014010B5044674
:1027100006220B4903F008FD0023A3710622094994
:10272000E01D03F001FD0B2363730622064904F14B
:102730000E0003F0F9FC01232375032010BD00BF38
:10274000E8870008208700082C870008034B1B68D7
:102750001BB1024A1368013B136070473C0500201F
:10276000124B18601249102381F81C334FF080433C
:1027700042F20F721A8577229A851A8892B242F035
:1027800010021A801A8892B222F0100292B21A80B5
:102790001A8892B242F001021A809A8992B242F0EB
:1027A00001029A814FF080530B6070471C02002099
:1027B00000E100E04FF0804213889BB223F0010358
:1027C0009BB21380704700BF10B43C4A102082F8BF
:1027D0001C034FF0804300241C85772199851988BC
:1027E00089B201431980198889B221F0100189B298
:1027F0001980998989B241F0010199814FF0805186
:10280000116082F81E032E490C8540F6C31088859E
:10281000088880B240F010000880088880B220F05C
:10282000100080B20880888980B240F00100888161
:102830001360202382F83733224B1C854FF41C7120
:102840009985198889B241F010011980198889B2D7
:1028500021F0100189B21980198889B241F0010173
:102860001980998989B241F0010199814FF40003DF
:102870005360402382F81D33134B4FF6FE711985C8
:1028800045F2C8519985198889B241F01001198023
:10289000198889B221F0100189B21980198889B28A
:1028A00041F001011980998989B241F001019981B2
:1028B0004FF00053136010BC704700BF00E100E010
:1028C0000008004000140040000400404FF0804227
:1028D000138A9BB223F001039BB21382044B1B6843
:1028E000002B03DD024A1368013B1360704700BFF1
:1028F0001C02002008B50F4A138A9BB223F0010383
:102900009BB213820C4B1B785BB24BB90B48FEF7A2
:102910008BFF0B4B18615A6842F001025A6008BDE8
:10292000084B1B68002B03DD064A1368013B13604C
:1029300008BD00BF0008004020020020540700200E
:10294000007400401C02002008B5234A138A9BB281
:1029500023F001039BB21382204B93F9003002F560
:102960008832D16C1E4A22F81310032B30D1118803
:1029700053880B4491880B44D188194441F34F018B
:10298000184B1980A1F6FF7109B21748FEF7DCFE5B
:10299000164B93F860312BB1154A136943F48073D9
:1029A000136104E0124A136943F08073136100223B
:1029B0000A4B1A700F4A92F90030591C1170022B01
:1029C00009D10A48FFF7A6F900220A4B1A7008BD80
:1029D0000133024A137008BD001400404005002076
:1029E000C40D0020CC0D0020540700204405002019
:1029F000001001404105002008B5274A138A9BB208
:102A000023F001039BB21382244B1B7893B1244A19
:102A1000127893420ED82348FEF7B2FBFFF7F0FA84
:102A2000214B93F8303313F0FF0FF9D101221C4BE7
:102A30001A7003E01A4A1378013313701B4B1B788A
:102A40002BB31B4A1278934221D81A48FEF798FB01
:102A5000194B1A68194B83FB0231D317C3EB61037F
:102A600003EB430399008A4200D01AB90120FFF713
:102A700095FC02E00020FFF791FC0B4B93F83033FC
:102A800013F0FF0FF9D10122094B1A7008BD084A53
:102A900013780133137008BD000400404205002084
:102AA00038000020F0870008540700204507002068
:102AB000390000200088000848070020ABAAAA2A95
:102AC000704700BF0000000080B588B06A4AD36933
:102AD00043F02703D361936943F4036343F00D0389
:102AE0009361664D80220021284603F028FBDFF821
:102AF000E4814046FFF70AFE614B1870FFF7D4FDF2
:102B0000604C2046FEF714FF5F4F00231A46214613
:102B10003846FFF75DFAFFF7BDFAFFF755FEFDF700
:102B20006DFF0023594A1360594A13600A23594A1A
:102B300013700421584A1170584A1370584B069369
:102B4000232305934523049347A3D3E90023CDE929
:102B50000223312301934E23009345A3D3E900239D
:102B60005049284603F096FFC0B24F4B187000261C
:102B70002E5400902B46032241463846FFF7A2F917
:102B8000D4F82431D4F820219A1A043A474B12B2CF
:102B900004F231113046FFF7FFFCFDF793FF444B81
:102BA0001B68012BFBD0374C2046FEF7C1FEFEF719
:102BB00051FFFEF781FF2046FEF7BAFE3D4B002293
:102BC00021463148FFF704FA0023019300936FF088
:102BD0003F0211466420FDF7A9FF4FF440713648CB
:102BE000FDF786FCFFF70CFA01213448FDF776FC6F
:102BF00010B10120FFF7D2FB314B93F90030012BCC
:102C00001FD12A4D80220021284603F098FA2D4C2E
:102C1000B4F99C21023A2B4612B204F15201002071
:102C2000FFF7BAFCFDF74EFF0025174B83F8605104
:102C30002046FFF78BFA224B1D70234A138801337D
:102C40001380224B1B68012BCED10E4A0E4920481F
:102C5000FFF7D2FC0023019300936FF03F0211466F
:102C60007820FDF763FFBFE70000000000BE9D4035
:102C7000000000E0D154B34000100240A80600203C
:102C80005007002054070020440500209C0A002023
:102C90002C070020420500204607002045070020A1
:102CA000EC840008108800084C070020D0030020A6
:102CB000C8030020C12A000800100140000801409C
:102CC000C00D0020200C00209A0A002020000020C7
:102CD000440300203007002030B5214A21F0004392
:102CE000934287B01BDD1F4A934205DD02460B4627
:102CF00002F03EFA07B030BD02AA00F0F9F800F089
:102D0000030001281AD002280FD008B3DDE9020120
:102D100001230093DDE9042301F022FAEAE700220F
:102D2000002300F001FD07B030BDDDE90423DDE93B
:102D3000020100F0F9FC01F10041DBE70090DDE960
:102D40000423DDE9020101F00BFA01F10041D1E7B2
:102D5000DDE90423DDE9020100F0E6FCCAE700BF7B
:102D6000FB21E93FFFFFEF7F30B5214A21F000430F
:102D7000934287B01BDD1F4A934205DD02460B4696
:102D800002F0F6F907B030BD02AA00F0B1F800F089
:102D9000030001281ED0022811D0DDE9042300B36E
:102DA000DDE9020100F0C0FC01F10041EAE7002387
:102DB00000930022002301F0D3F907B030BD0123B6
:102DC0000093DDE90201DDE9042301F0C9F901F115
:102DD0000041D7E7DDE90423DDE9020100F0A4FCAE
:102DE000D0E70124DDE90201009401F0B9F9C9E757
:102DF000FB21E93FFFFFEF7F00B51C4A20F00043B5
:102E0000934283B018DDB3F1FF4F05DB014602F0BA
:102E10008FFE03B05DF804FB694600F011FB00F083
:102E20000302012A15D0022A0CD0CAB1012201994D
:102E3000009801F05FFEECE7002101F047FA03B0D3
:102E40005DF804FB0199009801F040FA00F10040A0
:102E5000DFE70199009801F04DFE00F10040D8E74E
:102E60000199009801F032FAD3E700BFD80F493F2B
:102E700000B51D4A20F00043934283B019DDB3F141
:102E8000FF4F05DB014602F053FE03B05DF804FB83
:102E9000694600F0D5FA00F00300012818D0022896
:102EA0000ED0D0B10199009801F010FA00F1004065
:102EB000EBE70022002101F01DFE03B05DF804FBEA
:102EC00001220199009801F015FE00F10040DCE7B5
:102ED0000199009801F0FAF9D7E7012201990098C9
:102EE00001F008FED1E700BFD80F493F00F016BA45
:102EF0002DE9F04F944C21F00047A7428FB040F3EA
:102F000081801446914A0E46974226DC84A3D3E979
:102F10000023002940F3A08102F02AF98C4B80465F
:102F20009F42894600F083807FA3D3E9002302F00B
:102F30001FF902460B464046C4E90023494602F009
:102F400017F979A3D3E9002302F012F90125C4E9A6
:102F5000020128460FB0BDE8F08F7E4A974240F349
:102F600083807D4A974258DC3D15A5F21645A7EBB4
:102F700005518B46824602F05FFD02F047FA80461B
:102F8000894642464B4650465946CDE9088902F0EB
:102F9000EFF80022714B02F09FFA8B46824602F056
:102FA0004BFD02F033FA8046894642464B46504676
:102FB0005946CDE90A8902F0DBF80022674B02F09E
:102FC0008BFA00220023CDE90C0102F0EDFC002871
:102FD00000F06A81002340464946002202F0E4FCEA
:102FE000002814BF012302235D48022101900091B3
:102FF0002A46214608A800F0BBFC002EC0F24A81F8
:10300000054606E0C2E9000100250024C2E90245A8
:10301000002528460FB0BDE8F08F02460B4602F0AF
:10302000A7F80025C4E90201C4E90001F1E740A3C3
:10303000D3E9002302F09CF83FA3D3E9002306461E
:103040000F4602F095F802460B463046C4E90023CD
:10305000394602F08DF838A3D3E9002302F088F84E
:103060000125C4E90201D4E701F0BAFD34A3D3E994
:1030700000238046894602F02FFA0022394B02F0E5
:1030800079F802F0D9FC054602F0C0F924A3D3E98F
:103090000023CDE9040102F01FFA02460B46404628
:1030A000494602F065F820A3D3E9002382468B4607
:1030B000DDE9040102F010FA1F2DCDE9020155DC13
:1030C000294B6A1E53F822309F424FD002460B46CE
:1030D0005046594602F04CF802460B468146884657
:1030E000C4E900234A4643465046594602F040F898
:1030F000DDE9022302F03CF802460B46002EC4E94B
:10310000022386DA4A4608F1004301F1004184E8CF
:103110000C00E160A0606D427BE700BFAFF3008070
:1031200000004054FB21F93F3163621A61B4D03D85
:103130000000601A61B4D03D7370032E8A19A33B5E
:1031400083C8C96D305FE43FFB21E93F7BD9024072
:10315000FB21F93FFB213941FFFFEF7F0000704168
:10316000AC8800080000E03F2C880008DDE902235D
:103170005046594601F0FCFF3F15C1F30A53FB1AB4
:10318000102B81468846C4E90001ABDD58A3D3E982
:103190000023DDE9040102F09FF9804689460246DA
:1031A0000B465046594601F0E3FFCDE906010246C1
:1031B0000B465046594601F0DBFF42464B4601F0B4
:1031C000D7FF4DA3D3E9002380468946DDE90401FA
:1031D00002F082F942464B4601F0CAFF02460B4616
:1031E000CDE90201DDE9060101F0C2FF0B4602460E
:1031F0008846C1F30A517F1A312F8146C4E9002362
:1032000072DD3FA3D3E90023DDE9040102F064F994
:103210008046894602460B46DDE9060101F0A8FF1B
:1032200002460B4682468B46DDE9060101F0A0FF0F
:1032300042464B4601F09CFF33A3D3E9002380466E
:103240008946DDE9040102F047F942464B4601F0A8
:103250008FFFCDE9020139E701F08CFF2E4B80464C
:103260009F42894622D02AA3D3E9002301F082FF9E
:1032700002460B464046C4E90023494601F078FF68
:1032800023A3D3E9002301F075FF4FF0FF35C4E914
:103290000201BEE66268E36802F1004203F1004306
:1032A00045426260E360B4E603239DE610A3D3E9E0
:1032B000002301F05FFF10A3D3E9002306460F4669
:1032C00001F058FF02460B463046C4E90023394658
:1032D00001F04EFF08A3D3E9002301F04BFF4FF0AC
:1032E000FF35C4E9020194E6DDE906ABFAE600BF6A
:1032F0000000601A61B4D03D7370032E8A19A33B9D
:103300000000002E8A19A33BC14920259A837B39EE
:103310003163621A61B4D03DFB21F93FF8B50C4628
:1033200021F00041B1F1FF4F034614DC20F00046CC
:10333000B6F1FF4F07460EDCB4F17E5F3DD0A51716
:1033400005F0020545EAD07556B9022D31D0032D9E
:103350002CD13248F8BD1946204602F0EBFBF8BDEF
:1033600001B3B1F1FF4F2CD0B6F1FF4F1AD0711A53
:10337000C9153C291BDC002C39DB2146184602F01C
:1033800095FD01F041FE01F029FD012D2CD0022D0B
:1033900022D0002D2FD0224902F0CCFB214902F08F
:1033A000C7FBF8BD002F06DB1F48F8BDF8BD1E485F
:1033B000EBE71C48F8BD1D48F8BDBDE8F84001F03A
:1033C0000DBDB6F1FF4F17D0022DF2D0032DC0D0A6
:1033D000012D19D00020F8BD114902F0ABFB0146C8
:1033E000104802F0A5FBF8BD00F10040F8BD3C31EB
:1033F000C3DA0020C9E7F8BD022D0CD0032D08D098
:10340000012D04D00A48F8BD4FF00040F8BD09482E
:10341000F8BD0948F8BD0948F8BD00BFDB0F49C039
:103420002EBDBB33DB0F4940DB0FC93FDB0FC9BFEC
:10343000DB0F493FDB0F49BFE4CB16C0E4CB16409E
:103440002DE9F04FAA4A20F00044944289B067DD8C
:10345000A84A0D469442074601461CDC0028A649AE
:1034600040F3EA8002F064FBA44B24F00F049C427A
:10347000064663D0A24902F05BFB01463046296054
:1034800002F056FB9E4902F053FB01236860184688
:1034900009B0BDE8F08F9B4A944261DDB4F1FF4F63
:1034A00046DAE615863EA4EBC654204602F010FE2E
:1034B00002F0F4FB034620461946059302F038FB60
:1034C0004FF0874102F03EFC804602F001FE02F020
:1034D000E5FB044640462146069402F029FB4FF0E6
:1034E000874102F02FFC0021079002F0BFFD002869
:1034F00000F0C3802046002102F0B8FD002814BF70
:10350000012302238048022101900091324629467E
:1035100005A800F09FFF002FC0F2A580034603E03E
:10352000002208604A600023184609B0BDE8F08F09
:1035300002F0FEFA002368602860F5E7734902F0A4
:10354000F7FA7349044602F0F3FA0146204629606F
:1035500002F0EEFA6E4902F0EBFA01236860E3E74D
:1035600001F052FD6B49804602F0ECFB4FF07C51BC
:1035700002F0E0FA02F0ACFD064602F08FFB5E4975
:10358000834602F0DFFB0146404602F0D1FA5C4977
:103590008146584602F0D6FB1F2E82460146484619
:1035A00018DC5D4B721E53F8223024F0FF029A4261
:1035B00010D002F0BDFA8046C5F80080414648466A
:1035C00002F0B6FA514602F0B3FA002F686056DBFB
:1035D0003346A9E702F0ACFAE215C0F3C753D31A99
:1035E000082B8046E8DD49495846039202F0AAFBC1
:1035F00080460146484602F09BFA0146044648468A
:1036000002F096FA414602F093FA80464049584645
:1036100002F098FB414602F08BFA014682462046B2
:1036200002F086FA039AC0F3C753D21A192A8046C9
:1036300041DC2860A146C1E702F07CFA2F4B24F060
:103640000F049C42064623D02D4902F073FA01462E
:103650003046296002F06CFA294902F06BFA4FF00B
:10366000FF33686060E795E80C0002F1004103F168
:103670000042296043426A6056E7032342E708F1AB
:10368000004800F10040C5F80080686073424BE7D5
:103690001E4902F04FFA1E49044602F04BFA014659
:1036A0002046296002F044FA194902F043FA4FF02B
:1036B000FF33686038E71949584602F043FB01467A
:1036C0008046204602F034FA01468146204602F048
:1036D0002FFA414602F02CFA04461149584602F0EE
:1036E00031FB214602F024FA82460146484660E753
:1036F000D80F493FE3CB1640800FC93FD00FC93FD9
:1037000043443537800F4943348A00080044353735
:1037100008A3852E84F9223FB489000800A3852ED2
:1037200032318D24000000002DE9F04F21F00046D9
:10373000B6F1795F85B00C4692469B4605466BDA3A
:1037400002F07AF9002800F0E7802A46234628464E
:10375000214601F0C1FE74A3D3E9002380468946C7
:1037600001F0BAFE72A3D3E9002301F003FD424643
:103770004B4601F0B1FE70A3D3E9002301F0F8FC41
:1037800042464B4601F0A8FE6DA3D3E9002301F0A9
:10379000F1FC42464B4601F09FFE6BA3D3E90023A8
:1037A00001F0E6FC42464B4601F096FE68A3D3E9E1
:1037B000002301F0DFFC42464B4601F08DFECDE9CF
:1037C00000010022644B4046494601F085FEDDE9D8
:1037D000002306460F464046494601F07DFE52460C
:1037E000804689465B462846214601F075FE024622
:1037F0000B464046494601F0BBFC02460B463046AC
:10380000394601F0B5FC02460B460020534901F051
:10381000AFFC05B0BDE8F08F02460B4601F05CFE40
:1038200041A3D3E900238046894601F055FE40A319
:10383000D3E9002301F09EFC42464B4601F04CFECA
:103840003DA3D3E9002301F093FC42464B4601F02F
:1038500043FE3BA3D3E9002301F08CFC42464B46D8
:1038600001F03AFE38A3D3E9002301F081FC42467F
:103870004B4601F031FE36A3D3E9002301F07AFC78
:103880004B46424601F028FE354BCDE900019E42F1
:1038900097DD344B00229E4238DCA6F50013002051
:1038A0002E4916461F4601F063FCCDE902010022B5
:1038B000294B4046494601F00FFE32463B4601F097
:1038C00057FCDDE9002306460F464046494601F015
:1038D00003FE5246804689465B462846214601F053
:1038E000FBFD02460B464046494601F041FC0246BC
:1038F0000B463046394601F03BFC02460B46DDE9FB
:10390000020101F035FC05B0BDE8F08F164B002632
:10391000CDE90223154FCAE71049002005B0BDE8E4
:10392000F08F00BFAFF30080D43888BEE9FAA8BD9D
:10393000C4B1B4BD9EEE213EAD529C804F7E923EFE
:103940009015CB19A001FA3E7751C1166CC1563FB4
:103950004C5555555555A53F0000E03F0000F03F40
:103960003233D33F0000E93F0000E73F0000D23F81
:103970002DE9F04F794CADF51D7D1F460B93D31EFD
:1039800084FB0354DB17C3EBA403A69E744C23EA09
:10399000E37554F826406B1C26460994A3EB830379
:1039A0007C1E0D95029402EBC3032D1B3419049069
:1039B0000A91089316D42C44013422AEA79F08E044
:1039C00057F8250001F022FD0135A542E6E9020184
:1039D00008D0002DF4DA013500200021A542E6E9E7
:1039E0000201F6D1099B002B2FDB099B74AADDF89D
:1039F000089002EBC30B0DF5E47A029B002BC0F29A
:103A000095810B9B0026C3EB090824AB03EBC80888
:103A1000049B0027A3F1080524AB03EBC904F5E9D7
:103A2000022374E8020101F057FD02460B463046BE
:103A3000394601F09FFB444506460F46EFD1EAE9BF
:103A40000267DA4509F10109D7D1099B10A91D4682
:103A500003F18043023B9B001A1D0A440B440F9262
:103A60000E939CAB03EBC503002D53E928672BDDB8
:103A70009CAB03EBC504A83C0DF13C0A0DF5E47BBF
:103A80000022384B3046394601F026FD01F0D4FFC4
:103A900001F0BCFC0022344B8046894601F01CFD3D
:103AA00002460B463046394601F062FB01F0C4FF86
:103AB00074E802234AF8040F4946404601F05AFBD5
:103AC0005C4506460F46DBD1089C30463946224607
:103AD00001F012F900224FF07F5306460F4601F025
:103AE000FBFC01F081F80022204B01F0F5FC0246BE
:103AF0000B463046394601F03BFB0F46064601F0C7
:103B00009BFF814601F082FC02460B463046394657
:103B100001F02EFB002C06460F4640F3EE80681E97
:103B200010AB53F82030C4F1180243FA02F101FA45
:103B300002F29B1AC4F1170810AA42F820308944F7
:103B400043FA08F8B8F1000F3DDD002D09F1010935
:103B500040F3D382002214460FA911E0ABAAAA2A8F
:103B60004C8D00080000703E0000704100002040B5
:103B7000C3F180700BB108600124013295420DDD64
:103B800051F8043F002CF3D0C3F1FF13013203F5C9
:103B90007F4395420B604FF00104F1DC089B002B42
:103BA0000DDD012B00F0B180022B08D16A1E10AB95
:103BB00053F8223010A9C3F3150341F82230B8F1AD
:103BC000020F00F08180002200233046394601F0C8
:103BD000EBFE002800F05B82099B05F1FF3B5B4593
:103BE00010DC05F1804310AA013B0F9802EB830320
:103BF000002253F80419834242EA0102F9D1002A53
:103C000040F0B180099B10AA013B52F82330002BF1
:103C100040F071820E9A012352F8041901330029F1
:103C2000FAD0E9186A1C8A420C914BDC0D990B986A
:103C30005118DB0001F180410593A79B0544013930
:103C4000E80003EB810A24ABD20003EB000B74AB5A
:103C500013440193A2F10803069007934FF0000963
:103C60005AF8040F01F0D2FB029BEBE80201002B93
:103C70004FF000064FF000071BDB069B03EB090427
:103C8000079B09EB030824AB1C449844049BA3F155
:103C90000805F5E9022374E8020101F01DFC024663
:103CA0000B463046394601F065FA444506460F4654
:103CB000EFD1019B09F10809E3E802670193059B35
:103CC0009945CDD10C9DCCE632463B460020B0490B
:103CD00001F04EFA06460F46002C3FF474AF089AE6
:103CE0000020AB4901F008F802460B463046394641
:103CF00001F03EFA06460F4665E710D16B1E10AA8A
:103D000052F823304FEAE3581CE76A1E10AB53F811
:103D1000223010A9C3F3160341F822304FE70022E6
:103D20009C4B01F05FFE58B980464CE70026002707
:103D3000EAE90267DA4509F101097FF45EAE84E63B
:103D4000002D09F10109C8BF4FF002083FF702AF8B
:103D500032463B4600208E4901F00AFA4FF0020835
:103D600006460F462FE7089A10AB53F82B30183A47
:103D7000CDF81490CDF8048008926BB90BF1804314
:103D8000013B10A901EB830353F804190BF1FF3B2E
:103D9000183A0029F8D00892089A00207C4900F0CF
:103DA000ABFFBBF1000F04460D46C0F2B6814FEAEF
:103DB000CB030DF5E87810AA02EB8B0608EB03099C
:103DC0000493043609F1080756F8040D01F01EFBB0
:103DD00022462B4601F080FB002267E902016E4B70
:103DE0002046294601F078FBB84504460D46EBD144
:103DF0004B46CDF818B09B460DF5987ACDF808A043
:103E0000DDF824A04FF00009BAF1000FC0F22681BE
:103E10005DA3D3E90023DFF884815D4600260027F7
:103E2000002403E0A14510DBF8E90223F5E80201D4
:103E300001F052FB02460B463046394601F09AF932
:103E40000134A24506460F46ECDA029BABF1080BA3
:103E500003EBC903C3E9006772AB5B4509F10109D4
:103E6000D2D1A69BDDF818B0DDF808A0032B00F234
:103E70008380DFE813F0D100950095000400BBF1CA
:103E8000000F40F35481049BCDF808B0534498468A
:103E9000D3E90067D34658E9029A32463B46484682
:103EA000514601F067F904460D4602460B46484666
:103EB000514601F05DF932463B4601F05BF9C8E935
:103EC000000168E90245C34526462F46E3D1DA469C
:103ED000DDF808B0BBF1010F40F32981049B0DF51B
:103EE0009C7B53449846D3E90067994659E90234CC
:103EF0003046CDE902341A463946234601F03AF9F4
:103F000004460D4602460B46DDE9020101F030F998
:103F100032463B4601F02EF9C9E9000169E9024544
:103F2000CB4526462F46E1D100231D4608F108085F
:103F300050AC184678E90223294601F01BF94445A4
:103F400003460D46F5D1019A002A00F0D880DAF830
:103F50000440DAF80C200A9FDAF80010DAF80800BA
:103F600005F1004504F1004402F100427D613B612E
:103F70007C60FA603960B860059B03F007000DF5BE
:103F80001D7DBDE8F08F00BF00000040FB21F93F20
:103F90000000F03F0000E03F0000703E608D000830
:103FA00000242146049D0835554475E90223204626
:103FB00001F0E0F855450446F7D1019B002B50D0A5
:103FC0000A9F01F100450B46DAE9000187E830005D
:103FD000224601F0CDF8BBF1000F03460D460DDD82
:103FE00001241846FAE90223294601F0C3F80134F6
:103FF000A34503460D46F4DA019A0AB105F10045DE
:10400000184629460A9BC3E90201059B03F00700F5
:104010000DF51D7DBDE8F08F00231C46049A083283
:10402000924418467AE90223214601F0A3F80BF1E5
:10403000FF3BBBF1FF3F03460C46F2D1019A0AB1A8
:1040400004F10044184621460A9BC3E90001059B80
:1040500003F007000DF51D7DBDE8F08F0026002759
:10406000F3E626460F4622460A9C0B46DAE9000193
:10407000C4E9006701F07CF8BBF1000F03460D4670
:10408000AEDC184629460A9BC3E90201BDE7089B3E
:1040900030465A423946CDF81490CDF8048000F0ED
:1040A0002BFE00222C4B06460F4601F09BFC0028FD
:1040B00040D00022294B3046394601F00DFA01F07C
:1040C000BBFC044601F0A2F90022234B01F004FAE4
:1040D0000B4602463946304601F04AF801F0ACFC86
:1040E000089B05F1010B1833089310AB43F825002A
:1040F00043F82B4050E6012393E500244EE5184693
:10410000DAE90067DAE9022329460A9DC5E9006772
:10411000C5E90401C5E902232EE7A69B032B3FF660
:104120002BAFDFE803F0151010020DF5987A00238D
:104130001D4608E73046394601F07EFC10ABAB4621
:1041400043F8250028E6002421460DF5987A34E747
:1041500000231C4672E700BF000070410000703E63
:104160002DE9F04F21F00046B6F1795F85B00C469D
:1041700090469946054604DA01F05EFC002800F0FE
:1041800085802A4623462846214601F0A5F90646A1
:104190000F4602460B462846214601F09DF93EA3F4
:1041A000D3E9002382468B463046394601F094F924
:1041B0003BA3D3E9002300F0DBFF32463B4601F08E
:1041C0008BF939A3D3E9002300F0D4FF32463B46F4
:1041D00001F082F936A3D3E9002300F0C9FF32468B
:1041E0003B4601F079F934A3D3E9002300F0C2FF84
:1041F0000E9BCDE900019BB30022334B404649465C
:1042000001F06AF9DDE90023CDE902015046594683
:1042100001F062F902460B46DDE9020100F0A8FF59
:1042200032463B4601F058F942464B4600F0A0FFAB
:1042300023A3D3E9002306460F465046594601F012
:104240004BF902460B463046394600F093FF0246D2
:104250000B462846214600F08BFF05B0BDE8F08FE5
:1042600002460B463046394601F036F914A3D3E92D
:10427000002300F07DFF52465B4601F02DF92A46EF
:10428000234600F077FF05B0BDE8F08F28462146B1
:1042900005B0BDE8F08F00BF7CD5CF5A3AD9E53DD7
:1042A000EB9C2B8AE6E55A3E7DFEB157E31DC73EE7
:1042B000D561C119A0012A3FA6F810111111813F43
:1042C000495555555555C53F0000E03F2DE9F84388
:1042D00020F00044B4F1485F06460F4649DA01F089
:1042E000F7FE002800F09D803146304601F02AFD9F
:1042F00005464E4901F026FD4D4901F01BFC2946BB
:1043000001F020FD4B4901F013FC294601F01AFD94
:10431000494901F00FFC294601F014FD474901F01D
:1043200007FC294601F00EFD454901F003FC294632
:1043300001F008FD80464FF07C51284601F002FD57
:1043400041460446284601F0FDFC39460546304604
:1043500001F0F8FC0146284601F0EAFB0146204640
:1043600001F0E6FB01464FF07E5001F0E1FBBDE8B5
:10437000F883014601F0E6FC05462C4901F0E2FC19
:104380002B4901F0D7FB294601F0DCFC294901F05B
:10439000CFFB294601F0D6FC274901F0CBFB29468B
:1043A00001F0D0FC254901F0C3FB294601F0CAFC0D
:1043B000234901F0BFFB294601F0C4FC214B804694
:1043C0009C42B8DD204B9C4227DC04F17F4421460F
:1043D0004FF07E5001F0ACFB81464FF07C512846F7
:1043E00001F0B0FC214601F0A3FB414604462846FB
:1043F00001F0A8FC39460546304601F0A3FC014611
:10440000284601F095FB0146204601F091FB01464C
:10441000484601F08DFBBDE8F883DFF834900B4C83
:10442000DBE74FF07E50BDE8F88300BF4ED747ADC5
:10443000F6740F317CF29334010DD037610BB63A2C
:10444000ABAA2A3D9999993E0000483F0000903E52
:104450000000383F2DE9F04F1C46DFB00891611E87
:1044600001910A936899BB4B029053F8213007934E
:10447000D31E48BF131DDB1023EAE37319460B93C9
:104480000133A2EBC3030693019A079B8D1A9C1874
:1044900015D42C44013421AE699F08E057F825005B
:1044A00001F0FCFB0135A54246F8040F07D0002DB2
:1044B000F4DA01350020A54246F8040FF7D1079B36
:1044C000002B2ADB079B0A9A19469346019E49AFA7
:1044D00001EB0208019B002BC0F2A18122ABCBEBC8
:1044E000060503EB8505029B4FF00009A3F1040AC2
:1044F00022AB03EB86045AF8041F54F8040901F0B8
:1045000021FC0146484601F015FBAC428146F2D140
:104510000136464547F8049FDCD1079B0EA91E468D
:1045200003F18043023B9B001A1D0A440B440D9289
:104530000C935EAB03EB8603002E53F8508C23DD07
:104540005EAB03EB8604543C0DAD49AF4FF06E51AA
:10455000404601F0F7FB01F0BBFD01F09FFB4FF07F
:104560008741814601F0EEFB0146404601F0E0FA4A
:1045700001F0AEFD54F8041945F8040F484601F067
:10458000D9FABC428046E1D14046DDF81880414668
:1045900000F084FD4FF07851044601F0D3FB00F0A9
:1045A00037FD4FF0824101F0CDFB0146204601F07E
:1045B000BFFA044601F08CFD074601F06FFB01468F
:1045C0002046444601F0B4FA002C054640F30E8123
:1045D000701E0EAB53F82030C8F1080243FA02F106
:1045E00001FA02F29B1AC8F1070A0EAA42F820301B
:1045F0000F4443FA0AFABAF1000F30DD002E07F13A
:10460000010740F34D82002214460DA907E0C3F5CF
:1046100080700BB108600124013296420BDD51F825
:10462000043F002CF3D00132C3F1FF0396420B602C
:104630004FF00104F3DC069B002B0DDD012B00F095
:10464000DD80022B08D1721E0EAB53F822300EA96A
:1046500003F03F0341F82230BAF1020F7CD0002171
:10466000284601F003FD002800F09080079B741E8F
:10467000A34210DC06F180430EAA013B0D9802EB29
:104680008303002253F80419834242EA0102F9D15C
:10469000002A40F0DE80079B0EAA013B52F823302F
:1046A000002B40F0FB810C9B012753F804290137B4
:1046B000002AFAD0F219731C9342099240DC0B9A3B
:1046C000B90003EB02080A9A08F18048039169993E
:1046D000164408F1FF38B20001EB880822A99B00BC
:1046E000049201EB020A4AAA02EB0309043B059378
:1046F000002658F8040F01F0D1FA019B4AF8040B88
:10470000002B1FDB049B0027F418059BF51822AB38
:104710001C441D44029BA3F1040B5BF8041F54F8D6
:10472000040901F00FFB0146384601F003FAAC42E0
:104730000746F2D1039B04369E4249F8047BD8D148
:10474000099EF6E6039B043600279E4249F8047B47
:10475000CFD1F5E7A08D000829464FF07E5001F03B
:10476000E7F90546002C3FF47AAF06994FF07E50EA
:1047700000F094FC0146284601F0DAF905460021D4
:10478000284601F073FC00287FF470AF0297069F63
:104790002846794200F082FC4FF08741044601F040
:1047A00083FC002800F081814FF06E51204601F01B
:1047B000C9FA01F08DFC01F071FA4FF0874105460E
:1047C00001F0C0FA0146204601F0B2F901F080FC88
:1047D0000EAB43F82600284601F07AFC3B4608332E
:1047E000741C06930EAB43F8240047E010D1731EEF
:1047F0000EAA52F823304FEA232AFCE6721E0EABB3
:1048000053F822300EA903F07F0341F8223023E74A
:104810004FF07C5101F048FC50B982461FE7013649
:104820004FF00009464547F8049F7FF453AE74E605
:10483000002E07F10107C8BF4FF0020A3FF7E3AEB1
:1048400029464FF07E5001F073F94FF0020A0546F9
:1048500005E7069A0EAB53F82430083A0297069201
:1048600063B904F18043013B0EA901EB830353F8C4
:104870000419013C083A0029F9D0069206994FF034
:104880007E5000F00BFC002C0546C0F21881A300FE
:104890004AAA1F1D02EB030901930EAB1F4409F145
:1048A000040657F8040D01F0F9F9294601F04AFA17
:1048B0004FF06E5146F8040D284601F043FA0EAB56
:1048C0009F420546EDD1A346DDF81C80A9F10409FD
:1048D0000027CDF80CA0B8F1000FB8BF002615DBFB
:1048E000824CCA4682480026002503E0AF420DDB19
:1048F00054F8040F5AF8041F01F024FA0146304618
:1049000001F018F90135A8450646EFDA5EAB03EB76
:104910008703A9F1040943F8A06C48AB994507F156
:104920000107D8D1689B5C46DDF80CA0032B5AD850
:10493000DFE803F08D5F5F02002C40F3BE80019A38
:104940005EA98B1836AE53F8A07CB51855F8049CB8
:104950003946484601F0EEF880460146484601F0E7
:10496000E7F8394601F0E6F8286045F8048DAE42D4
:104970004746EBD1012C40F3A080019B5EAAF418BE
:10498000254602EB030858F8A06C0DF1DC0955F838
:10499000048C3046414601F0CDF8074601464046BA
:1049A00001F0C6F8314601F0C5F8286045F8047DED
:1049B000A9453E46EBD10020043438AD54F8041D1F
:1049C00001F0B8F8A542F9D1BAF1000F6AD0369AD1
:1049D000379B00F1004002F1004203F10043089CC4
:1049E000A06022606360029B03F007005FB0BDE837
:1049F000F08F019D36AE04353544002055F8041D76
:104A000001F098F8B542F9D1BAF1000F39D0089AFF
:104A100000F1004301461360369801F089F8002C3C
:104A20000BDD36AE0125013556F8041F01F082F882
:104A3000AC42F8DABAF1000F50D0089A00F1004306
:104A40005360029B03F007005FB0BDE8F08F019B4D
:104A50005EAA13440020A3F19C05013C55F8041DF7
:104A600001F068F8631CF8D1BAF1000F01D000F131
:104A70000040089B1860029B03F007005FB0BDE890
:104A8000F08F089B01461860369801F051F8002C11
:104A9000D8BF0346C5DC089A5360D2E7012709E670
:104AA0000024C8E5369A379B99E7204601F010FBB1
:104AB0000EAB344643F82600E0E6002084E7689B0E
:104AC000032B90D801A252F823F000BFE94A000856
:104AD000E54A0008E54A0008BB4A00080346089A70
:104AE0005360AEE700208FE70020BDE7AC8D0008E3
:104AF0000000C93F2DE9F84320F00043B3F1485FBF
:104B000004460F46904603DA01F0E2FA002858D036
:104B10002146204601F016F905460146204601F0DF
:104B200011F929490646284601F00CF9274900F0F9
:104B3000FFFF294601F006F9254900F0FBFF294651
:104B400001F000F9234900F0F3FF294601F0FAF8DB
:104B5000214900F0EFFF8146B8F1000F22D04FF05D
:104B60007C51384601F0EEF849468046304601F067
:104B7000E9F80146404600F0DBFF294601F0E2F883
:104B8000394600F0D5FF15490546304601F0DAF800
:104B90000146284600F0CEFF0146204600F0C8FF3F
:104BA000BDE8F8830146284601F0CCF80B4900F037
:104BB000BFFF314601F0C6F8214600F0BBFFBDE85B
:104BC000F8832046BDE8F883D3C92E2F342FD7327F
:104BD0001BEF3836010D50398988083CABAA2A3EB4
:104BE00021F00041704700BFC1F30A522DE9F8439C
:104BF000A2F2FF36132E0B4604460D4688460746A2
:104C00001CDC002E3FDB3A4A864642FA06F901EAEE
:104C10000902024317D034A3D3E9002300F0AAFA13
:104C20000022002300F0E8FE20B1002D40DB28EA3E
:104C30000905002738462946BDE8F883332E06DDEE
:104C4000B6F5806F2FD020461946BDE8F883A2F252
:104C500013424FF0FF3929FA02F910EA090FF2D096
:104C600021A3D3E9002300F085FA0022002300F0FD
:104C7000C3FE0028DED0002D20DB454627EA0907C9
:104C800038462946D8E718A3D3E9002300F072FA82
:104C90000022002300F0B0FE0028CBD0002D18DB4E
:104CA00000273D46C6E702460B4600F063FACCE714
:104CB0004FF4801343FA06F6B044B8E7142E10D030
:104CC0000123C6F1340603FA06F6371928BF9844C3
:104CD000D3E725F00042074B224318BF1D460027AB
:104CE000A8E705F10108C8E79C7500883CE4377E19
:104CF000FFFF0F000000F0BFF8B5C1F30A560446ED
:104D00000D460B46174606BB21F00043034325D052
:104D100000222F4B00F0E0FB2E4A044697420D463E
:104D20000B462ADBC1F30A56363E40F2FE723E4481
:104D3000964228DC002E12DD23F0FF4323F4E0032B
:104D400043EA065520462946F8BD40F2FF729642D6
:104D5000EBD102460B4600F00DFAF8BDF8BD16F196
:104D6000350F1DDA4CF250339F420CDC14A1D1E90F
:104D7000000122462B4600F0E9F911A3D3E90023F4
:104D800000F0AAFBF8BD22460FA1D1E900012B4695
:104D900000F0DCF90CA3D3E9002300F09DFBF8BD83
:104DA00023F0FF4323F4E003363643EA065520465A
:104DB00029460022084B00F08FFBF8BDAFF30080BE
:104DC00059F3F8C21F6EA5019C7500883CE4377E3C
:104DD00000005043B03CFFFF0000903C2DE9F04143
:104DE00020F00045B5F1A14F0446064608DBB5F1B9
:104DF000FF4F6FDC002840F3A0806F48BDE8F081D2
:104E00006E4B9D4277DCB5F1445F68DB4FF0FF37B6
:104E10002146204600F096FF0146804600F092FFB2
:104E20000546674900F08EFF664900F083FE29467B
:104E300000F088FF644900F07DFE294600F082FF03
:104E4000624900F077FE294600F07CFF604900F0DF
:104E500071FE294600F076FF5E4900F06BFE414688
:104E600000F070FF5C498046284600F06BFF5B490C
:104E700000F05EFE294600F065FF594900F058FE3B
:104E8000294600F05FFF574900F052FE294600F026
:104E900059FF554900F04CFE294600F053FF7B1C9A
:104EA000014640464CD000F045FE214600F04AFF46
:104EB0004E4B4F4D53F8271000F03AFE214600F0BC
:104EC00037FE014655F8270000F032FE002E30DB99
:104ED000BDE8F081014600F02DFEBDE8F0814549B6
:104EE00000F028FE4FF07E5101F0E8F800288DD048
:104EF0002046BDE8F08100F087F83F4B04469D4214
:104F000029DCA3F5D0039D4244DC014600F012FEEB
:104F10004FF07E5100F00CFE4FF0804105462046D8
:104F200000F008FE0146284600F0C0FF00270446B6
:104F30006EE700F10040BDE8F0813048BDE8F08147
:104F400000F0F8FD214600F0FDFE0146204600F08D
:104F5000EFFDBDE8F0812A4B9D4214DC4FF07F51FC
:104F600000F0E6FD4FF07F510546204600F0EAFED6
:104F70004FF07E5100F0DEFD0146284600F096FF1E
:104F80000227044644E701461E4800F08FFF03272E
:104F900004463DE74FF07E5100F0CAFD4FF07E51D0
:104FA0000546204600F0C6FD0146284600F07EFF7B
:104FB000012704462CE700BFDB0FC93FFFFFDF3EA0
:104FC000D769853C59DA4B3D356B883D6E2EBA3D2D
:104FD0002549123EABAAAA3E21A215BD6BF16E3D3A
:104FE00095879D3D388EE33DCDCC4C3ED88D000855
:104FF000E88D0008CAF24971FFFF973FDB0FC9BF78
:10500000FFFF1B40000080BF20F00040704700BF42
:105010002DE9F04120F00047FC0D7F3C162C0546A1
:1050200013DC002C80461BDB194F2741384214D07B
:10503000184900F07FFD002101F040F868B1002D13
:105040001BDB28EA0700BDE8F081B7F1FF4F04D36E
:10505000014600F06FFDBDE8F0812846BDE8F08113
:105060000C4900F067FD002101F028F80028F4D079
:10507000002D08DB0020BDE8F0814FF4000343FA67
:1050800004F4A044DDE7002FE7D00348BDE8F08139
:10509000FFFF7F00CAF24971000080BF30F000427C
:1050A00038B5034616D0B2F1FF4F0FD2B2F5000F5C
:1050B0000D4610D30446D20D2A44FE2A2EDC002AC7
:1050C0001DDD24F0FF4444EAC25038BD014600F023
:1050D00031FD38BD38BD4FF0984100F033FE184A1D
:1050E0000346954207DBC0F3C7520446193AE3E78B
:1050F000144800F033F8134900F024FE38BD12F1D3
:10510000160F13DA4CF2503295421946F0DD0E4874
:1051100000F024F80C4900F015FE38BD19460A4885
:1051200000F01CF8084900F00DFE38BD193224F0DB
:10513000FF4040EAC2504FF04C5100F003FE38BD32
:10514000B03CFFFF6042A20DCAF2497103F0004378
:1051500021F0004242EA0301704700BF01F0004124
:1051600020F000400843704781F0004102E000BF9A
:1051700083F0004330B54FEA41044FEA430594EA17
:10518000050F08BF90EA020F1FBF54EA000C55EA52
:10519000020C7FEA645C7FEA655C00F0E2804FEA23
:1051A0005454D4EB5555B8BF6D420CDD2C4480EA05
:1051B000020281EA030382EA000083EA010180EA35
:1051C000020281EA0303362D88BF30BD11F0004F83
:1051D0004FEA01314FF4801C4CEA113102D04042B9
:1051E00061EB410113F0004F4FEA03334CEA1333F4
:1051F00002D0524263EB430394EA050F00F0A7800C
:10520000A4F10104D5F1200E0DDB02FA0EFC22FA06
:1052100005F2801841F1000103FA0EF2801843FAFA
:1052200005F359410EE0A5F120050EF1200E012AEB
:1052300003FA0EFC28BF4CF0020C43FA05F3C01829
:1052400051EBE37101F0004507D54FF0000EDCF1A2
:10525000000C7EEB00006EEB0101B1F5801F1BD34B
:10526000B1F5001F0CD349085FEA30004FEA3C0C4F
:1052700004F101044FEA445212F5800F80F09A8045
:10528000BCF1004F08BF5FEA500C50F1000041EB49
:10529000045141EA050130BD5FEA4C0C404141EB4D
:1052A000010111F4801FA4F10104E9D191F0000F74
:1052B00004BF01460020B1FA81F308BF2033A3F1F7
:1052C0000B03B3F120020CDA0C3208DD02F1140CEE
:1052D000C2F10C0201FA0CF021FA02F10CE002F129
:1052E0001402D8BFC2F1200C01FA02F120FA0CFC22
:1052F000DCBF41EA0C019040E41AA2BF01EB04516B
:10530000294330BD6FEA04041F3C1CDA0C340EDC68
:1053100004F11404C4F1200220FA04F001FA02F3AB
:1053200040EA030021FA04F345EA030130BDC4F169
:105330000C04C4F1200220FA02F001FA04F340EA5E
:105340000300294630BD21FA04F0294630BD94F00F
:10535000000F83F4801306BF81F480110134013DF6
:105360004EE77FEA645C18BF7FEA655C29D094EA67
:10537000050F08BF90EA020F05D054EA000C04BFE5
:105380001946104630BD91EA030F1EBF00210020D0
:1053900030BD5FEA545C05D14000494128BF41F06F
:1053A000004130BD14F580043CBF01F5801130BDD3
:1053B00001F0004545F0FE4141F470014FF000005E
:1053C00030BD7FEA645C1ABF194610467FEA655C0F
:1053D0001CBF0B46024650EA013406BF52EA0335B1
:1053E00091EA030F41F4002130BD00BF90F0000F9F
:1053F00004BF0021704730B54FF4806404F13204DB
:105400004FF000054FF0000150E700BF90F0000F93
:1054100004BF0021704730B54FF4806404F13204BA
:1054200010F0004548BF40424FF000013EE700BF8A
:1054300042004FEAE2014FEA31014FEA02701FBF1A
:1054400012F07F4393F07F4F81F06051704792F0EC
:10545000000F14BF93F07F4F704730B54FF4607466
:1054600001F0004521F0004120E700BF50EA0102B1
:1054700008BF704730B54FF000050AE050EA01025E
:1054800008BF704730B511F0004502D5404261EBCE
:1054900041014FF4806404F132045FEA915C3FF40F
:1054A000DCAE4FF003025FEADC0C18BF03325FEAA8
:1054B000DC0C18BF033202EBDC02C2F1200300FA5D
:1054C00003FC20FA02F001FA03FE40EA0E0021FA82
:1054D00002F11444C1E600BF70B54FF0FF0C4CF46C
:1054E000E06C1CEA11541DBF1CEA135594EA0C0F22
:1054F00095EA0C0F00F0DEF82C4481EA030621EA5D
:105500004C5123EA4C5350EA013518BF52EA033597
:1055100041F4801143F4801338D0A0FB02CE4FF049
:105520000005E1FB02E506F00042E0FB03E54FF079
:105530000006E1FB03569CF0000F18BF4EF0010E71
:10554000A4F1FF04B6F5007F64F5407404D25FEA6D
:105550004E0E6D4146EB060642EAC62141EA555120
:105560004FEAC52040EA5E504FEACE2EB4F1FD0C62
:1055700088BFBCF5E06F1ED8BEF1004F08BF5FEAE0
:10558000500E50F1000041EB045170BD06F0004692
:1055900046EA010140EA020081EA0301B4EB5C043F
:1055A000C2BFD4EB0C0541EA045170BD41F4801137
:1055B0004FF0000E013C00F3AB8014F1360FDEBF5C
:1055C000002001F0004170BDC4F10004203C35DA38
:1055D0000C341BDC04F11404C4F1200500FA05F3BB
:1055E00020FA04F001FA05F240EA020001F000425C
:1055F00021F0004110EBD37021FA04F642EB0601D2
:105600005EEA430E08BF20EAD37070BDC4F10C04FB
:10561000C4F1200500FA04F320FA05F001FA04F2BF
:1056200040EA020001F0004110EBD37041F10001AB
:105630005EEA430E08BF20EAD37070BDC4F12005B6
:1056400000FA05F24EEA020E20FA04F301FA05F21E
:1056500043EA020321FA04F001F0004121FA04F2C6
:1056600020EA020000EBD3705EEA430E08BF20EA96
:10567000D37070BD94F0000F0FD101F000464000D0
:1056800041EB010111F4801F08BF013CF7D041EA52
:10569000060195F0000F18BF704703F00046520056
:1056A00043EB030313F4801F08BF013DF7D043EA27
:1056B0000603704794EA0C0F0CEA135518BF95EADD
:1056C0000C0F0CD050EA410618BF52EA4306D1D164
:1056D00081EA030101F000414FF0000070BD50EA83
:1056E000410606BF1046194652EA430619D094EA0D
:1056F0000C0F02D150EA013613D195EA0C0F05D1F7
:1057000052EA03361CBF104619460AD181EA03014A
:1057100001F0004141F0FE4141F470014FF0000002
:1057200070BD41F0FE4141F4780170BD70B54FF09D
:10573000FF0C4CF4E06C1CEA11541DBF1CEA13551D
:1057400094EA0C0F95EA0C0F00F0A7F8A4EB0504FF
:1057500081EA030E52EA03354FEA013100F08880F6
:105760004FEA03334FF0805545EA131343EA1263BF
:105770004FEA022245EA111545EA10654FEA002674
:105780000EF000419D4208BF964244F1FD0404F52D
:10579000407402D25B084FEA3202B61A65EB030589
:1057A0005B084FEA32024FF480104FF4002CB6EB46
:1057B000020E75EB030E22BFB61A754640EA0C00C6
:1057C0005B084FEA3202B6EB020E75EB030E22BF06
:1057D000B61A754640EA5C005B084FEA3202B6EB47
:1057E000020E75EB030E22BFB61A754640EA9C0006
:1057F0005B084FEA3202B6EB020E75EB030E22BFD6
:10580000B61A754640EADC0055EA060E18D04FEA93
:10581000051545EA16754FEA06164FEAC30343EA33
:1058200052734FEAC2025FEA1C1CC0D111F4801F00
:105830000BD141EA00014FF000004FF0004CB6E7F9
:1058400011F4801F04BF01430020B4F1FD0C88BF98
:10585000BCF5E06F3FF6AFAEB5EB030C04BFB6EBA3
:10586000020C5FEA500C50F1000041EB045170BD96
:105870000EF0004E4EEA113114EB5C04C2BFD4EBC3
:105880000C0541EA045170BD41F480114FF0000E47
:10589000013C90E645EA060E8DE60CEA135594EAC3
:1058A0000C0F08BF95EA0C0F3FF43BAF94EA0C0FC6
:1058B0000AD150EA01347FF434AF95EA0C0F7FF43B
:1058C00025AF104619462CE795EA0C0F06D152EA8F
:1058D00003353FF4FDAE1046194622E750EA410673
:1058E00018BF52EA43067FF4C5AE50EA41047FF484
:1058F0000DAF52EA43057FF4EBAE12E74FF0FF3CE9
:1059000006E000BF4FF0010C02E000BF4FF0010CB9
:105910004DF804CD4FEA410C7FEA6C5C4FEA430C32
:1059200018BF7FEA6C5C1BD001B050EA410C0CBF81
:1059300052EA430C91EA030F02BF90EA020F0020E3
:10594000704710F1000F91EA030F58BF994208BF4A
:1059500090422CBFD8176FEAE37040F00100704707
:105960004FEA410C7FEA6C5C02D150EA013C07D15E
:105970004FEA430C7FEA6C5CD6D152EA033CD3D0A9
:105980005DF8040B704700BF8446104662468C46A3
:105990001946634600E000BF01B5FFF7B7FF0028D6
:1059A00048BF10F1000F01BD4DF808EDFFF7F4FFFF
:1059B0000CBF012000205DF808FB00BF4DF808ED8A
:1059C000FFF7EAFF34BF012000205DF808FB00BFAD
:1059D0004DF808EDFFF7E0FF94BF012000205DF8CF
:1059E00008FB00BF4DF808EDFFF7CEFF94BF012084
:1059F00000205DF808FB00BF4DF808EDFFF7C4FF7D
:105A000034BF012000205DF808FB00BF4FEA410CC5
:105A10007FEA6C5C02D150EA013C0AD14FEA430CA8
:105A20007FEA6C5C02D152EA033C02D14FF00000E5
:105A300070474FF0010070474FEA410212F5001223
:105A400015D211D56FF47873B3EB625212D94FEAC5
:105A5000C12343F0004343EA505311F0004F23FAAF
:105A600002F018BF404270474FF00000704750EA04
:105A7000013005D111F0004008BF6FF000407047C1
:105A80004FF00000704700BF4FEA4102B2F1E0431F
:105A900024BFB3F5001CDCF1FE5C0DD901F0004C15
:105AA0004FEAC0024CEA5070B2F1004F40EB830065
:105AB00008BF20F00100704711F0804F21D113F191
:105AC0003872BCBF01F00040704741F480114FEACA
